:020000040000FA
:100000000C9462000C948A000C948A000C948A0070
:100010000C948A000C948A000C948A000C948A0038
:100020000C948A000C948A000C948A000C948A0028
:100030000C948A000C948A000C948A000C948A0018
:100040000C94D4020C948A000C948A000C948A00BC
:100050000C948A000C948A000C948A000C948A00F8
:100060000C948A000C948A000000000024002700F1
:100070002A0000000000250028002B0000000000DE
:1000800023002600290004040404040404040202DA
:100090000202020203030303030301020408102007
:1000A0004080010204081020010204081020000012
:1000B0000008000201000003040700000000000027
:1000C0000000990411241FBECFEFD8E0DEBFCDBFE2
:1000D00011E0A0E0B1E0E2E1FAE002C005900D928B
:1000E000A231B107D9F721E0A2E1B1E001C01D9230
:1000F000A832B207E1F710E0C2E6D0E004C02197D1
:10010000FE010E940105C136D107C9F70E941E03F6
:100110000C9407050C940000809126019091270112
:100120008230910538F0880F991F880F991F059725
:100130000197F1F70895833081F028F4813099F028
:100140008230A9F008958730A9F08830C9F0843052
:10015000B1F4809180008F7D03C0809180008F7703
:1001600080938000089584B58F7784BD089584B509
:100170008F7DFBCF8091B0008F778093B000089582
:100180008091B0008F7DF9CFCF93DF93282F30E09F
:10019000F901E255FF4F8491F901E656FF4FD491E2
:1001A000F901EA57FF4FC491CC23A1F081110E94BD
:1001B0009B00EC2FF0E0EE0FFF1FE458FF4FA591DE
:1001C000B491EC91ED2381E090E009F480E0DF91BF
:1001D000CF91089580E090E0FACF1F93CF93DF9303
:1001E000282F30E0F901E255FF4F8491F901E656DE
:1001F000FF4FD491F901EA57FF4FC491CC23A9F0E6
:10020000162F81110E949B00EC2FF0E0EE0FFF1FD4
:10021000EE58FF4FA591B4918FB7F894EC9111115E
:1002200008C0D095DE23DC938FBFDF91CF911F9163
:100230000895DE2BF8CFCF93DF9390E0FC01E656D4
:10024000FF4F24918A579F4FFC0184918823C9F066
:1002500090E0880F991FFC01E859FF4FA591B491D8
:10026000FC01EE58FF4FC591D49161110DC09FB7AD
:10027000F8948C91209582238C938881282328835D
:100280009FBFDF91CF910895623051F49FB7F894EA
:100290003C91822F809583238C93E8812E2BEFCF86
:1002A0008FB7F894EC912E2B2C938FBFEACFCF937E
:1002B000DF93C3E2D1E061E089810E941B010E94CB
:1002C0008C0060E088810E941B010E948C0060E02D
:1002D00089810E941B01DF91CF910C948C000F93B8
:1002E0001F93CF93DF93D82FC8E061E08091230163
:1002F0000E941B010E948C000D2F10E060E0D0FFD7
:1003000061E0809124010E941B010E948C0060E04A
:10031000809123010E941B010E948C001595079576
:10032000D02FC15011F761E0809123010E941B0181
:1003300060E0809124010E941B010E948C0060E01B
:10034000809123010E941B010E948C008091240156
:100350000E94C400C82F811105C061E08091240172
:100360000E941B010E948C0061E0809123010E9489
:100370001B010E948C0081E0C11101C080E0DF916F
:10038000CF911F910F91089561E0809124010E9407
:100390001B010C948C003FB7F89480911F01909141
:1003A0002001A0912101B091220126B5A89B05C092
:1003B0002F3F19F00196A11DB11D3FBFBA2FA92FE4
:1003C000982F8827BC01CD01620F711D811D911DE1
:1003D00042E0660F771F881F991F4A95D1F708954D
:1003E0008F929F92AF92BF92CF92DF92EF92FF9245
:1003F0000E94CB014B015C0182E3C82ED12CE12C81
:10040000F12C0E94CB01681979098A099B09683E81
:10041000734081059105A8F321E0C21AD108E108D3
:10042000F10888EE880E83E0981EA11CB11CC1144F
:10043000D104E104F10429F7FF90EF90DF90CF9011
:10044000BF90AF909F908F900895AF92BF92CF9240
:10045000DF92EF92FF920F931F93CF93DF9300D021
:1004600000D0CDB7DEB78C01209118013091190171
:100470002330310511F16CE370E00E94CB0444E6B7
:10048000469F8001479F100D1124080F191F21302E
:10049000310599F42FB7F89460911B0170911C01FC
:1004A00080911D0190911E012FBF24EF31E040E0AB
:1004B00050E00E94DF0420FD73C020E4780117FFA4
:1004C00004C0EE24FF24E01AF10A312F331F332732
:1004D000331F8E010B5F1F4FCE0101965C018AE036
:1004E000C82ED12C40E4C701B6010E94B704F80120
:1004F000DC01AE5FBE4F5C915293892B39F4E1145D
:10050000F10421F4332311F0408330E0C701B60138
:100510000E94B7047B01AE16BF0609F043C0222338
:1005200069F00D5F1F4F9191DF011197822F807845
:10053000892B8C93220F0E171F07A9F70E94C40165
:1005400080E40E946F010E9457010E94C40180EC68
:100550000E946F0189810E946F018A810E946F0150
:100560008B810E946F018C810E946F010E94570154
:100570000E94C401809125018F7080580E946F01F4
:100580000F900F900F900F90DF91CF911F910F91CF
:10059000FF90EF90DF90CF90BF90AF900C945701F9
:1005A00020E08CCF8F019FCF1F920F920FB60F923A
:1005B00011242F933F938F939F93AF93BF93809179
:1005C0001B0190911C01A0911D01B0911E01309161
:1005D0001A0123E0230F2D3758F50196A11DB11DF7
:1005E00020931A0180931B0190931C01A0931D017D
:1005F000B0931E0180911F0190912001A0912101D3
:10060000B09122010196A11DB11D80931F0190930D
:100610002001A0932101B0932201BF91AF919F913E
:100620008F913F912F910F900FBE0F901F901895B3
:1006300026E8230F0296A11DB11DD2CFCF93DF93E1
:100640001F92CDB7DEB7789484B5826084BD84B53F
:10065000816084BD85B5826085BD85B5816085BDBD
:1006600080916E00816080936E0010928100809175
:1006700081008260809381008091810081608093FD
:100680008100809180008160809380008091B10022
:1006900084608093B1008091B00081608093B0004D
:1006A00080917A00846080937A0080917A008260E1
:1006B00080937A0080917A00816080937A008091A3
:1006C0007A00806880937A001092C10061E082E035
:1006D0000E941B0161E089E00E941B0161E082E051
:1006E0000E94ED0061E089E00E94ED0062E088E098
:1006F0000E941B0162E087E00E941B018DE0809355
:10070000250190E080E00E94250280E0282E80E014
:10071000382E9FE0692E712C03E010E022E0E22EDB
:10072000F12C38E5C32E32E0D32E8FB7F8948090A9
:100730001B0190901C01A0901D01B0901E018FBF65
:1007400088E00E94C40055245394009709F4512C6A
:1007500040900101442021F0892B99F50E94F0017D
:100760005092010187E00E94C40021E02983009794
:1007700009F4198250900001552021F0892B19F5B8
:100780000E94F0018981809300018091180190916D
:1007900019018130910591F1C0F08230910509F481
:1007A00074C0039709F484C08091160190911701D9
:1007B0000E9425022114310409F4B7CF0E940000E1
:1007C000B4CF412CCDCF512CDDCF442069F3D09252
:1007D0001701C092160181E090E090931901809377
:1007E000180160E082E00E94ED0080921201909278
:1007F0001301A0921401B0921501D6CF552049F0F3
:10080000F0921901E092180161E082E00E94ED008F
:10081000CBCF40911201509113016091140170915E
:100820001501841A950AA60AB70A98EE891693E06C
:100830009906A104B10408F4B7CF809116019091F4
:10084000170148515C4F6F4F7F4F409312015093F7
:100850001301609314017093150101979093170190
:1008600080931601181619060CF49ECF61E082E001
:100870000E94ED0070921701609216011093190109
:100880000093180160E089E0C1CF4110A4CF55204A
:1008900009F48ACF109217011092160110921901D3
:1008A0001092180161E082E00E94ED0061E0EBCF60
:1008B000552049F01092170110921601109219015B
:1008C00010921801F3CF40911201509113016091E1
:1008D000140170911501841A950AA60AB70A98EEB8
:1008E000891693E09906A104B10408F45DCF8091C4
:1008F00016019091170148515C4F6F4F7F4F409305
:100900001201509313016093140170931501019724
:100910009093170180931601181619060CF444CF12
:1009200061E089E00E94ED00109219011092180117
:100930003BCFCF93DF93C3E2D1E08CE088838BE0A1
:10094000898384E690E09C838B8360E08CE00E9446
:100950001B0160E089810E941B0160E088810E9488
:10096000ED0060E08981DF91CF910C94ED00AA1B2E
:10097000BB1B51E107C0AA1FBB1FA617B70710F08A
:10098000A61BB70B881F991F5A95A9F780959095BC
:10099000BC01CD01089597FB072E16F4009407D0F3
:1009A00077FD09D00E94B70407FC05D03EF490956E
:1009B00081959F4F0895709561957F4F0895A1E2AD
:1009C0001A2EAA1BBB1BFD010DC0AA1FBB1FEE1FC9
:1009D000FF1FA217B307E407F50720F0A21BB30B14
:1009E000E40BF50B661F771F881F991F1A9469F790
:1009F00060957095809590959B01AC01BD01CF01EC
:100A00000895EE0FFF1F0590F491E02D0994F894DE
:100A1000FFCF01013F065B4F666D7D077F6F777CDF
:040A2000395E797151
:107E0000112484B714BE81FFF0D085E080938100F7
:107E100082E08093C00088E18093C10086E0809377
:107E2000C20080E18093C4008EE0C9D0259A86E02C
:107E300020E33CEF91E0309385002093840096BBD3
:107E4000B09BFECF1D9AA8958150A9F7CC24DD24C4
:107E500088248394B5E0AB2EA1E19A2EF3E0BF2EE7
:107E6000A2D0813461F49FD0082FAFD0023811F036
:107E7000013811F484E001C083E08DD089C08234E0
:107E800011F484E103C0853419F485E0A6D080C0E4
:107E9000853579F488D0E82EFF2485D0082F10E0AE
:107EA000102F00270E291F29000F111F8ED06801E7
:107EB0006FC0863521F484E090D080E0DECF843638
:107EC00009F040C070D06FD0082F6DD080E0C81688
:107ED00080E7D80618F4F601B7BEE895C0E0D1E017
:107EE00062D089930C17E1F7F0E0CF16F0E7DF06D8
:107EF00018F0F601B7BEE89568D007B600FCFDCFD4
:107F0000A601A0E0B1E02C9130E011968C91119780
:107F100090E0982F8827822B932B1296FA010C0160
:107F200087BEE89511244E5F5F4FF1E0A038BF0790
:107F300051F7F601A7BEE89507B600FCFDCF97BE46
:107F4000E89526C08437B1F42ED02DD0F82E2BD052
:107F50003CD0F601EF2C8F010F5F1F4F84911BD097
:107F6000EA94F801C1F70894C11CD11CFA94CF0C13
:107F7000D11C0EC0853739F428D08EE10CD085E9AC
:107F80000AD08FE07ACF813511F488E018D01DD067
:107F900080E101D065CF982F8091C00085FFFCCF94
:107FA0009093C60008958091C00087FFFCCF809118
:107FB000C00084FD01C0A8958091C6000895E0E648
:107FC000F0E098E1908380830895EDDF803219F02E
:107FD00088E0F5DFFFCF84E1DECF1F93182FE3DFCA
:107FE0001150E9F7F2DF1F91089580E0E8DFEE27F6
:047FF000FF270994CA
:027FFE00040479
:00000001FF
